:100000000C9472000C947E000C947E000C947E0084
:100010000C947E000C947E000C947E000C947E0068
:100020000C947E000C947E000C947E000C947E0058
:100030000C947E000C947E000C947E000C947E0048
:100040000C947E000C947E000C947E000C947E0038
:100050000C947E000C947E000C947E000C947E0028
:100060000C947E000C947E000C947E000C947E0018
:100070000C947E000C947E000C947E000C947E0008
:100080000C947E000C947E000C947E000C947E00F8
:100090000C947E000C947E000C947E000C947E00E8
:1000A0000C947E000C947E000C947E000C947E00D8
:1000B0000C947E000C947E000C947E000C947E00C8
:1000C0000C947E000C947E000C947E000C947E00B8
:1000D0000C947E000C947E000C947E000C947E00A8
:1000E0000C947E0011241FBECFEFD1E2DEBFCDBF46
:1000F00000E00CBF0E9428020C9444080C940000FD
:10010000CF93DF93CDB7DEB785E290E0FC0120818D
:1001100085E290E02B7FFC01208385E290E0FC01EA
:10012000208185E290E0277FFC01208385E290E03A
:10013000FC01208185E290E02D7FFC01208385E297
:1001400090E0FC01208185E290E02160FC012083A9
:100150000000DF91CF910895CF93DF93CDB7DEB745
:1001600085E290E0FC01208185E290E0277FFC01A0
:10017000208385E290E0FC01208185E290E02D7FE4
:10018000FC01208385E290E0FC01208185E290E083
:100190002160FC01208385E290E0FC01208185E262
:1001A00090E02460FC0120830000DF91CF9108954E
:1001B000CF93DF93CDB7DEB785E290E0FC012081DD
:1001C00085E290E02E7FFC01208385E290E0FC0137
:1001D000208185E290E02D7FFC01208385E290E084
:1001E000FC01208185E290E0277FFC01208385E2ED
:1001F00090E0FC01208185E290E02460FC012083F6
:100200000000DF91CF910895CF93DF93CDB7DEB794
:10021000A4970FB6F894DEBF0FBECDBF85E290E085
:10022000DC012C9185E290E02E7FFC01208385E2A9
:1002300090E0DC012C9185E290E02D7FFC01208391
:1002400085E290E0DC012C9185E290E0277FFC01C3
:10025000208385E290E0DC012C9185E290E0216032
:10026000FC0120831A8219829EC085E290E0DC01A5
:100270003C9185E290E024E02327FC01208380E08C
:1002800090E0AAEFB3E48B839C83AD83BE8320E030
:1002900030E04AE755E46B817C818D819E810E942C
:1002A000AF076D8B7E8B8F8B988F8D899E89AF89E1
:1002B000B88D8F839887A987BA8720E030E040E81F
:1002C0005FE36F81788589859A850E942907882355
:1002D0002CF481E090E09C878B8755C020E03FEFB5
:1002E0004FE757E46F81788589859A850E94AA0730
:1002F0008823D9F1D4F120E030E040E251E46B8171
:100300007C818D819E810E94AF07698F7A8F8B8F50
:100310009C8F898D9A8DAB8DBC8D898B9A8BAB8B85
:10032000BC8B69897A898B899C890E942E076D8F85
:100330007E8F8F8F98A3AD8DBE8DBC87AB8710C08D
:1003400080E991E09E878D878D859E850197F1F7E5
:100350009E878D8700008B859C8501979C878B8766
:100360008B859C85009761F719C06F817885898599
:100370009A850E942E0769A37AA38BA39CA3E9A167
:10038000FAA1FC87EB878B859C85988B8F878F855F
:1003900098890197F1F7988B8F87000089819A815E
:1003A00001969A83898349815A8124EF31E0429FE3
:1003B000C001439F900D529F900D1124833FF1E0A7
:1003C0009F0709F00CF451CF00000000A4960FB66F
:1003D000F894DEBF0FBECDBFDF91CF910895CF93CC
:1003E000DF93CDB7DEB70E9480000000DF91CF9190
:1003F0000895CF93DF93CDB7DEB70E94800085E2EA
:1004000090E0FC01208185E290E02860FC012083DF
:100410000000DF91CF910895CF93DF93CDB7DEB782
:100420000E94800085E290E0FC01208185E290E05E
:100430002860FC01208385E290E0FC01208185E2B8
:1004400090E02260FC0120830000DF91CF910895AD
:100450000F931F93CF93DF93CDB7DEB7CC5CD10959
:100460000FB6F894DEBF0FBECDBF84E290E0DC0192
:100470002C9184E290E02260FC01208384E290E0F1
:10048000DC012C9184E290E02860FC01208384E26E
:1004900090E0DC012C9184E290E02460FC01208358
:1004A00084E290E0DC012C9184E290E02160FC0188
:1004B00020830E9480009E01295B3F4F80E090E0F6
:1004C000AAEFB3E4F90180839183A283B3838E0101
:1004D000055B1F4FCE01895B9F4F20E030E04AE76C
:1004E00055E4DC016D917D918D919C910E94AF0747
:1004F000E1966CAF7DAF8EAF9FAFE197E1962CADEB
:100500003DAD4EAD5FADE197D8012D933D934D9339
:100510005C931397CE01855B9F4F20E030E040E86D
:100520005FE3FC0160817181828193810E942907D0
:10053000882354F4CE01815B9F4F21E030E0DC0141
:1005400011963C932E9395C0CE01855B9F4F20E082
:100550003FEF4FE757E4FC01608171818281938115
:100560000E94AA07882309F00CF469C0CE01895BB8
:100570009F4F20E030E040E251E4DC016D917D913D
:100580008D919C910E94AF07E5966CAF7DAF8EAFC9
:100590009FAFE597E5962CAD3DAD4EAD5FADE597D0
:1005A000AD962CAF3DAF4EAF5FAFAD978E01015B07
:1005B0001F4FAD966CAD7DAD8EAD9FADAD970E94DA
:1005C0002E07E9966CAF7DAF8EAF9FAFE997E796A8
:1005D000EEADFFADE797D8011196FC93EE9326C0E0
:1005E000CE018F5A9F4F20E931E0DC012D933C93DF
:1005F000CE018F5A9F4FFC01808191810197F1F7C5
:100600009E012F5A3F4FD9018D939C930000CE013C
:10061000815B9F4F9E01215B3F4FF901208131811A
:1006200021503109DC0111963C932E93CE01815B60
:100630009F4FFC0180819181009791F635C08E011A
:10064000015B1F4FCE01855B9F4FDC016D917D915A
:100650008D919C910E942E07ED966CAF7DAF8EAF71
:100660009FAFED97EB962EAD3FADEB97F801318341
:100670002083CE018D5A9F4F9E01215B3F4FD901B0
:100680002D913C91FC0131832083CE018D5A9F4FE7
:10069000DC018D919C910197F1F79E012D5A3F4FFE
:1006A000F9019183808300000E94AC0080E090E01B
:1006B000AAEFB3E489AF9AAFABAFBCAF20E030E0B4
:1006C0004AE755E469AD7AAD8BAD9CAD0E94AF07AA
:1006D000C358DF4F688379838A839B83CD57D0408B
:1006E000CE01CD96C358DF4F288139814A815B8185
:1006F000CD57D040DC012D933D934D935C931397E0
:1007000020E030E040E85FE3CE01CD96FC0160815F
:100710007181828193810E942907882354F4CE013C
:100720008F5B9F4F21E030E0DC0111963C932E93CC
:100730009BC020E03FEF4FE757E4CE01CD96FC0190
:1007400060817181828193810E94AA07882309F0C8
:100750000CF46DC020E030E040E251E469AD7AADC8
:100760008BAD9CAD0E94AF07CF57DF4F6883798375
:100770008A839B83C158D040CF57DF4F288139816E
:100780004A815B81C158D040A9962CAF3DAF4EAF96
:100790005FAFA9978E010F5B1F4FA9966CAD7DAD22
:1007A0008EAD9FADA9970E942E07CB57DF4F688370
:1007B00079838A839B83C558D040CB57DF4FE8812C
:1007C000F981C558D040D8011196FC93EE9326C00C
:1007D000CE018D5B9F4F20E931E0DC012D933C93EE
:1007E000CE018D5B9F4FFC01808191810197F1F7D4
:1007F0009E012D5B3F4FD9018D939C930000CE014C
:100800008F5B9F4F9E012F5B3F4FF901208131810C
:1008100021503109DC0111963C932E93CE018F5B60
:100820009F4FFC0180819181009791F638C08E0125
:100830000F5B1F4FCE01CD96DC016D917D918D91A7
:100840009C910E942E07C757DF4F688379838A8364
:100850009B83C958D040C757DF4F28813981C95879
:10086000D040F80131832083CE018B5B9F4F9E01E6
:100870002F5B3F4FD9012D913C91FC0131832083A7
:10088000CE018B5B9F4FDC018D919C910197F1F71D
:100890009E012B5B3F4FF9019183808300000E94F2
:1008A000040180E090E0AAEFB3E48BA79CA7ADA77A
:1008B000BEA720E030E04AE755E46BA57CA58DA5F6
:1008C0009EA50E94AF07C357DF4F688379838A8351
:1008D0009B83CD58D040C357DF4F288139814A814F
:1008E0005B81CD58D0402FA738AB49AB5AAB20E045
:1008F00030E040E85FE36FA578A989A99AA90E9432
:10090000290788232CF481E090E09CAB8BAB72C06C
:1009100020E03FEF4FE757E46FA578A989A99AA98E
:100920000E94AA07882309F00CF44EC020E030E0B2
:1009300040E251E46BA57CA58DA59EA50E94AF0762
:10094000CF56DF4F688379838A839B83C159D04018
:10095000CF56DF4F88819981AA81BB81C159D04090
:10096000A5968CAF9DAFAEAFBFAFA597A5966CAD6A
:100970007DAD8EAD9FADA5970E942E07CB56DF4F64
:10098000688379838A839B83C559D040CB56DF4FD8
:10099000A881B981C559D040BCABABAB10C080E9D0
:1009A00091E09EAB8DAB8DA99EA90197F1F79EAB0F
:1009B0008DAB00008BA99CA901979CAB8BAB8BA93D
:1009C0009CA9009761F721C06FA578A989A99AA968
:1009D0000E942E07C756DF4F688379838A839B83E3
:1009E000C959D040C756DF4FE881F981C959D04075
:1009F000FCABEBAB8BA99CA998AF8FAB8FA998AD43
:100A00000197F1F798AF8FAB00000E94D80080E00B
:100A100090E0AAEFB3E48D8F9E8FAF8FB8A320E054
:100A200030E04AE755E46D8D7E8D8F8D98A10E9450
:100A3000AF07C356DF4F688379838A839B83CD5981
:100A4000D040C356DF4F288139814A815B81CD591F
:100A5000D04029A33AA34BA35CA320E030E040E8B8
:100A60005FE369A17AA18BA19CA10E942907882339
:100A70002CF481E090E09EA38DA372C020E03FEFB4
:100A80004FE757E469A17AA18BA19CA10E94AA0714
:100A9000882309F00CF44EC020E030E040E251E43D
:100AA0006D8D7E8D8F8D98A10E94AF07CF55DF4F42
:100AB000688379838A839B83C15AD040CF55DF4FA7
:100AC00088819981AA81BB81C15AD040A1968CAFFF
:100AD0009DAFAEAFBFAFA197A1966CAD7DAD8EAD12
:100AE0009FADA1970E942E07CB55DF4F6883798376
:100AF0008A839B83C55AD040CB55DF4FA881B981EB
:100B0000C55AD040BEA3ADA310C080E991E098A71C
:100B10008FA38FA198A50197F1F798A78FA3000045
:100B20008DA19EA101979EA38DA38DA19EA100974B
:100B300061F721C069A17AA18BA19CA10E942E0717
:100B4000C755DF4F688379838A839B83C95AD04016
:100B5000C755DF4FE881F981C95AD040FEA3EDA304
:100B60008DA19EA19AA789A789A59AA50197F1F7BA
:100B70009AA789A700000E94F90180E090E0AAEFFF
:100B8000B3E48F87988BA98BBA8B20E030E04AE7DB
:100B900055E46F85788989899A890E94AF07C35582
:100BA000DF4F688379838A839B83CD5AD040C355B6
:100BB000DF4F288139814A815B81CD5AD0402B8B10
:100BC0003C8B4D8B5E8B20E030E040E85FE36B892F
:100BD0007C898D899E890E94290788232CF481E0D5
:100BE00090E0988F8F8B72C020E03FEF4FE757E483
:100BF0006B897C898D899E890E94AA07882309F0C8
:100C00000CF44EC020E030E040E251E46F8578897A
:100C100089899A890E94AF07CF54DF4F688379830F
:100C20008A839B83C15BD040CF54DF4F88819981F9
:100C3000AA81BB81C15BD0406D968CAF9DAFAEAF3A
:100C4000BFAF6D976D966CAD7DAD8EAD9FAD6D9761
:100C50000E942E07CB54DF4F688379838A839B835E
:100C6000C55BD040CB54DF4FA881B981C55BD04074
:100C7000B88FAF8B10C080E991E09A8F898F898DF2
:100C80009A8D0197F1F79A8F898F00008F89988D3F
:100C90000197988F8F8B8F89988D009761F721C06E
:100CA0006B897C898D899E890E942E07C754DF4FEE
:100CB000688379838A839B83C95BD040C754DF4FA5
:100CC000E881F981C95BD040F88FEF8B8F89988DCF
:100CD0009C8F8B8F8B8D9C8D0197F1F79C8F8B8FC9
:100CE00000000E940C0280E090E0AAEFB3E4898348
:100CF0009A83AB83BC8320E030E04AE755E4698106
:100D00007A818B819C810E94AF07C354DF4F688337
:100D100079838A839B83CD5BD040C354DF4F288186
:100D200039814A815B81CD5BD0402D833E834F83E7
:100D3000588720E030E040E85FE36D817E818F815D
:100D400098850E94290788232CF481E090E09A87F7
:100D5000898772C020E03FEF4FE757E46D817E81C5
:100D60008F8198850E94AA07882309F00CF44EC051
:100D700020E030E040E251E469817A818B819C81FE
:100D80000E94AF07CF53DF4F688379838A839B83A9
:100D9000C15CD040CF53DF4F88819981AA81BB814C
:100DA000C15CD04069968CAF9DAFAEAFBFAF6997C5
:100DB00069966CAD7DAD8EAD9FAD69970E942E0793
:100DC000CB53DF4F688379838A839B83C55CD04094
:100DD000CB53DF4FA881B981C55CD040BA87A987C2
:100DE00010C080E991E09C878B878B859C8501975B
:100DF000F1F79C878B87000089859A8501979A87F0
:100E0000898789859A85009761F721C06D817E81E8
:100E10008F8198850E942E07C753DF4F688379839F
:100E20008A839B83C95CD040C753DF4FE881F98137
:100E3000C95CD040FA87E98789859A859E878D8726
:100E40008D859E850197F1F79E878D8700000000B4
:100E500030CB0E945D0708F481E008950E94890765
:100E600088F09F5798F0B92F9927B751B0F0E1F06B
:100E7000660F771F881F991F1AF0BA95C9F714C01B
:100E8000B13091F00E94A307B1E008950C94A3073C
:100E9000672F782F8827B85F39F0B93FCCF3869554
:100EA00077956795B395D9F73EF4909580957095B1
:100EB00061957F4F8F4F9F4F0895990F0008550FF1
:100EC000AA0BE0E8FEEF16161706E807F907C0F0D0
:100ED00012161306E407F50798F0621B730B840BD8
:100EE000950B39F40A2661F0232B242B252B21F4B2
:100EF00008950A2609F4A140A6958FEF811D811D52
:100F0000089557FD9058440F551F59F05F3F71F0F9
:100F10004795880F97FB991F61F09F3F79F0879560
:100F20000895121613061406551FF2CF4695F1DFE9
:100F300008C0161617061806991FF1CF8695710579
:100F4000610508940895E894BB2766277727CB01AD
:100F500097F908950E945D0708F48FEF08950E94A5
:100F6000C2070C9433080E94250838F00E942C0810
:100F700020F0952311F00C941C080C9422081124E5
:100F80000C94A4070E94810770F3959FC1F3950FFD
:100F900050E0551F629FF001729FBB27F00DB11DFD
:100FA000639FAA27F00DB11DAA1F649F6627B00D8D
:100FB000A11D661F829F2227B00DA11D621F739F76
:100FC000B00DA11D621F839FA00D611D221F749F84
:100FD0003327A00D611D231F849F600D211D822FCB
:100FE000762F6A2F11249F5750409AF0F1F08823F2
:100FF0004AF0EE0FFF1FBB1F661F771F881F91501F
:101000005040A9F79E3F510580F00C941C080C94A9
:10101000A4075F3FE4F3983ED4F3869577956795F0
:10102000B795F795E7959F5FC1F7FE2B880F911D48
:101030009695879597F9089597F99F6780E870E0EE
:1010400060E008959FEF80EC089500240A9416163E
:10105000170618060906089500240A9412161306A6
:10106000140605060895092E0394000C11F4882334
:1010700052F0BB0F40F4BF2B11F460FF04C06F5F50
:0C1080007F4F8F4F9F4F0895F894FFCFD3
:00000001FF
