:100000000C9472000C9493000C9493000C94930045
:100010000C9493000C9493000C9493000C94930014
:100020000C9493000C9493000C9493000C94930004
:100030000C9493000C9493000C9493000C949300F4
:100040000C9493000C9493000C9493000C949300E4
:100050000C9493000C9493000C9493000C949300D4
:100060000C9493000C9493000C9493000C949300C4
:100070000C9493000C9493000C9493000C949300B4
:100080000C9493000C9493000C9493000C949300A4
:100090000C9493000C9493000C9493000C94930094
:1000A0000C9493000C9493000C9493000C94930084
:1000B0000C9493000C9493000C9493000C94930074
:1000C0000C9493000C9493000C9493000C94930064
:1000D0000C9493000C9493000C9493000C94930054
:1000E0000C94930011241FBECFEFD1E2DEBFCDBF31
:1000F00000E00CBF12E0A0E0B2E0E4ECF7E000E0CA
:100100000BBF02C007900D92A234B107D9F722E0CD
:10011000A2E4B2E001C01D92A834B207E1F70E9448
:10012000F8000C94E0030C9400001092C5008FE0DE
:100130008093C40088E08093C10086E08093C20071
:100140000895E0ECF0E0908195FFFDCF8093C6002C
:1001500008957F936F939F938F9380E092E09F9396
:100160008F930E9404010F900F900F900F900F90AB
:100170000F900895CF93DF93CDB7DEB72F970FB6CB
:10018000F894DEBF0FBECDBF0E9495008FE0E3E381
:10019000F2E0DE01119601900D928A95E1F78CE470
:1001A0000E94A10089E60E94A1008EE60E94A100A3
:1001B0008BE60E94A1008AE00E94A100BE016F5F51
:1001C0007F4F81E090E00E94A9002F960FB6F8942F
:1001D000DEBF0FBECDBFDF91CF9108952FEF83ED2E
:1001E00090E3215080409040E1F700C00000089566
:1001F0000E94BA002FEF83ED90E3215080409040A1
:10020000E1F700C00000F6CFCF93DF93CDB7DEB7A4
:10021000AE014A5F5F4FFA0161917191AF01809128
:100220004402909145020E941801DF91CF910895F8
:100230005F926F927F928F929F92AF92BF92CF9276
:10024000DF92EF92FF920F931F93CF93DF93CDB77F
:10025000DEB72F970FB6F894DEBF0FBECDBF6C018F
:100260007B018A01DC0117961C921E921697139649
:100270008C9181FFFEC12AE0522EF6019381F70195
:1002800093FD859193FF81917F01882309F473C0C9
:10029000853239F493FD859193FF81917F018532F9
:1002A00029F4B60190E00E945203E7CF912C612C13
:1002B000712CFFE1F71508F446C08B32C9F1F8F450
:1002C0008032C1F1833209F43BC0833609F49CC00B
:1002D000833709F4A5C0833509F0C8C0F801A1909F
:1002E000B1908F01692D70E076FC02C06FEF7FEF57
:1002F000C5010E943C034C01689477F871C08D32AF
:10030000E1F0803351F020ED280F2A3048F18E3291
:1003100009F04BC0689476F802C0689470F8F70151
:1003200093FD859193FF81917F018111C2CF45C0DB
:10033000689471F8689472F8F2CF689473F8EFCF0C
:10034000689474F8ECCF77FC38C020ED280F2A3081
:1003500070F476FE05C0959C200D1124922EDFCFFF
:10036000659C200D1124622E689475F8D8CF8E32CA
:10037000E1F476FECFCFD60116968D919C912F9603
:100380000FB6F894DEBF0FBECDBFDF91CF911F91A6
:100390000F91FF90EF90DF90CF90BF90AF909F9024
:1003A0008F907F906F905F9008958C3619F46894C9
:1003B00077F8B5CF883609F4B2CF982F9F7D955442
:1003C000933008F082CF0C5F1F4F8FE3898388241E
:1003D0008394912CAE014F5F5F4F5A01E89477F8F8
:1003E00073FC05C0862D90E08816990640F18114B3
:1003F000910461F5662009F440CFB60180E290E0F7
:100400000E9452036A94F6CFD8018C9189830E5FC3
:100410001F4F88248394912CFE0131965F01DECF1B
:10042000D801AD90BD908D01692D70E076FC02C0C1
:100430006FEF7FEFC5010E9447034C01CFCFB6019C
:1004400080E290E00E9452036A94CCCFF50177FCE1
:10045000859177FE81915F01B60190E00E94520381
:1004600061106A94F1E08F1A9108C1CF843619F0B7
:10047000893609F081C0F80177FE77C061917191EA
:10048000819191918F01272D2F76822E97FF09C0A0
:1004900090958095709561957F4F8F4F9F4F689491
:1004A00087F82AE030E0AE014F5F5F4F5A010E94AB
:1004B00082038A19A82EBA2C782C86FE0CC0E894E8
:1004C00070F8A91440F484FE05C082FC03C0782DA6
:1004D0007E7E772EB92C74FEA5C0FE01EA0DF11DBB
:1004E0008081803309F097C0872D897E782E73FC38
:1004F0000EC070FEA6C09A2CB61418F4960C9B1869
:10050000B62C862D8B196B1408F480E0B80EB61447
:1005100008F099C06B1874FE98C0B60180E390E0B3
:100520000E94520372FE09C088E590E071FC02C08F
:1005300088E790E0B6010E945203A91408F492C023
:10054000AA94B12C9FEFA91AB90ADE0111964D01A8
:10055000AA0EBB1EF50182915F01B60190E00E94D8
:1005600052038A149B04B1F745CF61917191072E14
:10057000000C880B990B86CF872CE89484F82AE02E
:1005800030E0853769F0572D597F852E803771F11E
:1005900018F5883571F18F3609F0EDCE28E030E09E
:1005A000F80187FE2EC081919191A191B1918C8724
:1005B0009D87AE87BF878F01BE016F5F7F4F5B0155
:1005C000AB016C857D858E859F850E9482038A198B
:1005D000A82EE89487F86FCF883709F0CCCE84FE38
:1005E00002C0689482F820E130E0DACF689484F8A1
:1005F000F6CF74FE03C0652F6660862E20E132E0E0
:10060000CFCF81919191AC0160E070E04C875D8724
:100610006E877F87D0CF72FC02C0B39468CFB3944B
:10062000B39465CF872D8678882309F460CFF5CF02
:10063000B60180E290E00E94520383948614C0F3D6
:1006400060CF8B2CFBCF612C66CF872D86788823DB
:1006500009F473CF8BE271FE80E277FC8DE2B60184
:1006600090E069CFB60180E390E00E9452039A9433
:1006700064CF8FEF9FEF83CEFC01059061507040F7
:100680000110D8F7809590958E0F9F1F0895FC015B
:100690006150704001900110D8F7809590958E0FB1
:1006A0009F1F08950F931F93CF93DF93182F092F48
:1006B000EB018B8181FD09C01FEF0FEF812F902F80
:1006C000DF91CF911F910F91089582FF14C02E8169
:1006D0003F818C819D81281739073CF4E881F9819D
:1006E000CF0101969983888310838E819F81019623
:1006F0009F838E83E3CFE885F985812F1995892B18
:10070000A1F3DACFFA01AA27283051F1203181F183
:10071000E8946F936E7F6E5F7F4F8F4F9F4FAF4F09
:10072000B1E03ED0B4E03CD0670F781F891F9A1F1C
:10073000A11D680F791F8A1F911DA11D6A0F711DD0
:10074000811D911DA11D20D009F468943F912AE0DC
:10075000269F11243019305D3193DEF6CF010895C4
:10076000462F4770405D4193B3E00FD0C9F7F6CFF5
:10077000462F4F70405D4A3318F0495D31FD4052BD
:10078000419302D0A9F7EACFB4E0A6959795879553
:1007900077956795BA95C9F7009761057105089532
:1007A0009B01AC010A2E06945795479537952795DE
:1007B000BA95C9F7620F731F841F951FA01D089576
:0407C000F894FFCFDB
:1007C4004D79416E616C6F6753656E736F7220571C
:1007D400656C636F6D654C696E653A20783D256480
:1007E4002C2053656E736F72204E616D653A20251F
:1007F400730A004D79416E616C6F6753656E736F58
:02080400720080
:00000001FF
